:100000000C945D000C9485000C9485000C94850084
:100010000C9485000C9485000C9485000C9485004C
:100020000C9485000C9485000C9485000C9485003C
:100030000C9485000C9485000C9485000C9485002C
:100040000C9468020C9485000C9436020C941002F7
:100050000C9485000C9485000C9485000C9485000C
:100060000C9485000C9485000000000024002700FB
:100070002A0000000000250028002B0004040404CE
:100080000404040402020202020203030303030342
:10009000010204081020408001020408102001021F
:1000A00004081020000000080002010000030407FB
:1000B0000000000000000000A80411241FBECFEFC4
:1000C000D8E0DEBFCDBF21E0A2E3B1E001C01D92C8
:1000D000AA3DB207E1F711E0A0E0B1E0ECE3FAE0FD
:1000E00002C005900D92A233B107D9F710E0CDE51B
:1000F000D0E004C02197FE010E941105CC35D10744
:10010000C9F70E94B2020C941C050C9400002FB792
:10011000F8948091390190913A01A0913B01B091FE
:100120003C012FBF8093450190934601A093470166
:10013000B0934801E0913D01F0913E010484F585C2
:10014000E02D8DE391E0099597FF26C02FB7F89435
:100150008091390190913A01A0913B01B0913C010D
:100160002FBF409145015091460160914701709128
:100170004801841B950BA60BB70B40914101509190
:100180004201609143017091440184179507A607CD
:10019000B70780F28FEF9FEF0895CF92DF92EF9233
:1001A000FF920F931F93CF93DF936C017A018B0122
:1001B000C0E0D0E0CE15DF0589F0D8016D918D014A
:1001C000D601ED91FC910190F081E02DC6010995D9
:1001D000892B11F47E0102C02196ECCFC701DF917B
:1001E000CF911F910F91FF90EF90DF90CF900895E6
:1001F000089580E090E00895FC01538D448D252FF3
:1002000030E0842F90E0821B930B541710F0CF96B0
:10021000089501970895FC01918D828D981761F0E2
:10022000828DDF01A80FB11D5D968C91928D9F5F2D
:100230009F73928F90E008958FEF9FEF0895FC01D8
:10024000918D828D981731F0828DE80FF11D858D8B
:1002500090E008958FEF9FEF0895FC01918D228D1E
:10026000892F90E0805C9F4F821B91098F739927A3
:1002700008958DE391E00E942D0121E0892B09F47E
:1002800020E0822F0895FC01848DDF01A80FB11DAD
:10029000A35ABF4F2C91848D90E001968F739927BC
:1002A000848FA689B7892C93A089B1898C918064A9
:1002B0008C93938D848D981306C00288F389E02D6A
:1002C00080818F7D80830895EF92FF920F931F931B
:1002D000CF93DF93EC0181E0888F9B8D8C8D9813F9
:1002E00005C0E889F989808185FD24C0F62E0B8D33
:1002F00010E00F5F1F4F0F731127E02E8C8DE81257
:100300000CC00FB607FCFACFE889F989808185FF18
:10031000F5CFCE010E944301F1CF8B8DFE01E80F96
:10032000F11DE35AFF4FF0820B8FEA89FB89808130
:10033000806207C0EE89FF896083E889F98980813E
:100340008064808381E090E0DF91CF911F910F91D5
:10035000FF90EF900895CF93DF93EC01888D882371
:10036000C9F0EA89FB89808185FD05C0A889B98922
:100370008C9186FD0FC00FB607FCF5CF808185FFFD
:10038000F2CFA889B9898C9185FFEDCFCE010E946B
:100390004301E7CFDF91CF91089580E090E0892B72
:1003A00029F00E94390181110C94000008953FB793
:1003B000F8948091330190913401A0913501B0916E
:1003C000360126B5A89B05C02F3F19F00196A11D47
:1003D000B11D3FBFBA2FA92F982F8827820F911DDB
:1003E000A11DB11DBC01CD0142E0660F771F881F22
:1003F000991F4A95D1F70895009769F0FC01019083
:100400000020E9F73197AF01481B590BBC018DE380
:1004100091E00C94CD0080E090E008950E941705D3
:100420001F920F920FB60F9211242F933F934F9369
:100430005F936F937F938F939F93AF93BF93EF934C
:10044000FF938DE391E00E944301FF91EF91BF91F3
:10045000AF919F918F917F916F915F914F913F915C
:100460002F910F900FBE0F901F9018951F920F9213
:100470000FB60F9211242F938F939F93EF93FF93B7
:10048000E0914D01F0914E018081E0915301F09196
:10049000540182FD12C09081809156018F5F8F734D
:1004A00020915701821751F0E0915601F0E0E35C92
:1004B000FE4F958F8093560101C08081FF91EF918F
:1004C0009F918F912F910F900FBE0F901F901895B5
:1004D0001F920F920FB60F9211242F933F938F9379
:1004E0009F93AF93BF938091390190913A01A0916E
:1004F0003B01B0913C013091320123E0230F2D37B5
:1005000020F40196A11DB11D05C026E8230F029617
:10051000A11DB11D209332018093390190933A01BE
:10052000A0933B01B0933C01809133019091340141
:10053000A0913501B09136010196A11DB11D8093A6
:10054000330190933401A0933501B0933601BF91EC
:10055000AF919F918F913F912F910F900FBE0F9070
:100560001F901895CF93DF93CDB7DEB7A5970FB641
:10057000F894DEBF0FBECDBF789484B5826084BD91
:1005800084B5816084BD85B5826085BD85B5816097
:1005900085BD80916E00816080936E001092810015
:1005A00080918100826080938100809181008160D0
:1005B0008093810080918000816080938000809191
:1005C000B10084608093B1008091B000816080931D
:1005D000B00080917A00846080937A0080917A00E4
:1005E000826080937A0080917A00816080937A00A3
:1005F00080917A00806880937A001092C10055E95A
:10060000E52E50E0F52EF701249161E8C62E60E05A
:10061000D62EF6018491882399F090E0880F991FD7
:10062000FC01E859FF4FA591B491FC01EE58FF4F32
:10063000859194918FB7F8949C91292B2C938FBF1F
:10064000E0914D01F0914E0182E08083E0914901FB
:10065000F0914A011082E0914B01F0914C018FEC36
:10066000808310925501E0915101F091520186E092
:100670008083E0914F01F0915001808180618083FF
:10068000E0914F01F0915001808188608083E0917A
:100690004F01F0915001808180688083E0914F018B
:1006A000F091500180818F7D80832AE0422E512C71
:1006B000612C712C39EA232E30E0332E2091370142
:1006C000309138018091000190910101281739077C
:1006D0000CF006C18DE391E00E942D011816190659
:1006E0000CF09BC00E948700FC0197FD11C08D3269
:1006F000910591F0C0970A9778F0E0913D01F09153
:100700003E010284F385E02D8DE391E00995EACF67
:1007100080E090E0DC012DC020E030E0A90110E095
:10072000E130F10509F0F2C0E0913D01F0913E01A8
:100730000284F385E02D8DE391E02AA33BA34CA333
:100740005DA309950E948700FC01C0972AA13BA1E7
:100750004CA15DA10A9720F3E130F10509F31123C3
:1007600009F4F3C088279927DC01821B930BA40BA3
:10077000B50B909301018093000186E191E00E9406
:10078000FC0120910001309101014901330FAA08B9
:10079000BB08B7FE26C0E0913D01F0913E010190FB
:1007A000F081E02D6DE28DE391E00995222733275A
:1007B000A901281939094A095B0919A28E010F5D9F
:1007C0001F4FCA01B901A30192010E94EF04605DAD
:1007D000F80162938F01211531054105510589F713
:1007E00015C0A501940119A28E010F5D1F4FCA010A
:1007F000B901A30192010E94EF04605DF8016293C8
:100800008F01211531054105510589F7C8010E9465
:10081000FC018FE291E00E94FC0120910201F101B4
:100820009491F7018491F6013491332309F43DC08A
:10083000992339F1933091F038F49130A9F0923046
:1008400001F594B59F7D12C0973091F09830A1F0DA
:100850009430B9F4909180009F7D03C09091800006
:100860009F77909380000DC094B59F7794BD09C089
:100870009091B0009F7703C09091B0009F7D9093BE
:10088000B000E32FF0E0EE0FFF1FEE58FF4FA591F1
:10089000B4919FB7F894211104C02C9180958223C4
:1008A00002C02C91822B8C939FBF0E94D7014B01D9
:1008B0005C010E94D701DC01CB0188199909AA09C2
:1008C000BB09883E9340A105B10598F3809137019B
:1008D0009091380101969093380180933701EECEC4
:1008E000109238011092370181E090E020910201CE
:1008F000309103012130310511F480E090E09093B4
:100900000301809302010E94CD01D8CEED32F105A2
:10091000D1F0CF01C0970A9708F006CFAAE0B0E067
:100920000E94D5044F01FF0FAA08BB08DC01CB01D0
:10093000880D991DAA1DBB1D9C01AD0120533109D5
:1009400041095109F1CE11E0EFCEDA01C90111CF11
:10095000EDE3F1E01382128288EE93E0A0E0B0E0D4
:1009600084839583A683B78388E091E09183808315
:1009700085EC90E09587848784EC90E09787868764
:1009800080EC90E0918B808B81EC90E0938B828B5C
:1009900082EC90E0958B848B86EC90E0978B868B35
:1009A000118E128E138E148E08950E94E004A59F5E
:1009B000900DB49F900DA49F800D911D112408955A
:1009C000A29FB001B39FC001A39F700D811D112490
:1009D000911DB29F700D811D1124911D0895A1E2FA
:1009E0001A2EAA1BBB1BFD010DC0AA1FBB1FEE1FA9
:1009F000FF1FA217B307E407F50720F0A21BB30BF4
:100A0000E40BF50B661F771F881F991F1A9469F76F
:100A100060957095809590959B01AC01BD01CF01CB
:100A20000895EE0FFF1F0590F491E02D099481E0E9
:0C0A300090E0F8940C941C05F894FFCFA3
:100A3C00E8030100000000006401CD00FC00AB01E4
:100A4C002D010B011F0153657474696E6720626C74
:100A5C00696E6B20696E74657276616C3A20000D5C
:020A6C000A007E
:00000001FF
