:100000000C945D000C9485000C9485000C94850084
:100010000C9485000C9485000C9485000C9485004C
:100020000C9485000C9485000C9485000C9485003C
:100030000C9485000C9485000C9485000C9485002C
:100040000C94A3040C9485000C9471040C944B0440
:100050000C9485000C9485000C9485000C9485000C
:100060000C9485000C9485000000000024002700FB
:100070002A0000000000250028002B0004040404CE
:100080000404040402020202020203030303030342
:10009000010204081020408001020408102001021F
:1000A00004081020000000080002010000030407FB
:1000B0000000000000000000ED0411241FBECFEF7F
:1000C000D8E0DEBFCDBF12E0A0E0B1E0EEEFF2E19C
:1000D00002C005900D92A23CB107D9F723E0A2EC33
:1000E000B2E001C01D92A83CB207E1F710E0CDE5F7
:1000F000D0E004C02197FE010E941308CC35D1073F
:10010000C9F70E9449050C947D090C940000E9EAA6
:10011000F0E02491E5E9F0E09491E1E8F0E0E49189
:10012000EE23C9F0222339F0233001F1A8F4213065
:1001300019F1223029F1F0E0EE0FFF1FEE58FF4FCA
:10014000A591B4912FB7F894EC91811126C09095A8
:100150009E239C932FBF08952730A9F02830C9F023
:10016000243049F7209180002F7D03C0209180002A
:100170002F7720938000DFCF24B52F7724BDDBCFEE
:1001800024B52F7DFBCF2091B0002F772093B000B6
:10019000D2CF2091B0002F7DF9CF9E2BDACFE09106
:1001A0007803F091790320917A0330917B03E21771
:1001B000F307C4F49F01220F331F220F331FE09176
:1001C0006E03F0916F03E20FF31F918380837383BB
:1001D00062838091780390917903019690937903DB
:1001E000809378030895AF92BF92CF92DF92EF92FF
:1001F000FF920F931F93CF93DF936C017B018B01D1
:10020000040F151FEB015E01AE18BF08C017D10720
:1002100059F06991D601ED91FC910190F081E02DAA
:10022000C6010995892B79F7C501DF91CF911F91FF
:100230000F91FF90EF90DF90CF90BF90AF90089517
:10024000FC01538D448D252F30E0842F90E0821BDC
:10025000930B541710F0CF96089501970895FC0161
:10026000918D828D981761F0A28DAE0FBF2FB11DB9
:100270005D968C91928D9F5F9F73928F90E0089511
:100280008FEF9FEF0895FC01918D828D981731F0CB
:10029000828DE80FF11D858D90E008958FEF9FEF1F
:1002A0000895FC01918D228D892F90E0805C9F4FF5
:1002B000821B91098F73992708958BEC92E00E941D
:1002C000510121E0892B09F420E0822F089580E07C
:1002D00090E0892B29F00E945D0181110C940000AF
:1002E0000895FC01A48DA80FB92FB11DA35ABF4FCB
:1002F0002C91848D90E001968F739927848FA68925
:10030000B7892C93A089B1898C91837080648C9378
:10031000938D848D981306C00288F389E02D808127
:100320008F7D80830895EF92FF920F931F93CF9359
:10033000DF93EC0181E0888F9B8D8C8D98131AC020
:10034000E889F989808185FF15C09FB7F894EE8907
:10035000FF896083E889F989808183708064808364
:100360009FBF81E090E0DF91CF911F910F91FF90AF
:10037000EF900895F62E0B8D10E00F5F1F4F0F7357
:100380001127E02E8C8D8E110CC00FB607FCFACF12
:10039000E889F989808185FFF5CFCE010E9471013E
:1003A000F1CFEB8DEC0FFD2FF11DE35AFF4FF082E3
:1003B0009FB7F8940B8FEA89FB8980818062CFCF49
:1003C000CF93DF93EC01888D8823B9F0AA89BB898C
:1003D000E889F9898C9185FD03C0808186FD0DC077
:1003E0000FB607FCF7CF8C9185FFF2CF808185FF98
:1003F000EDCFCE010E947101E9CFDF91CF91089539
:100400003FB7F8948091C7029091C802A091C902A9
:10041000B091CA0226B5A89B05C02F3F19F00196DE
:10042000A11DB11D3FBFBA2FA92F982F8827BC014E
:10043000CD01620F711D811D911D42E0660F771F76
:10044000881F991F4A95D1F70895DC0114968D9164
:100450009C91DC01ED91FC910190F081E02D0994DB
:10046000089590E080E00895AC01465A5F4FBC01CA
:100470006C5E7F4F90E080E00C949707FB01019049
:100480000020E9F73197AF01461B570BDC01ED91D6
:10049000FC910280F381E02D09944F925F926F925C
:1004A0007F928F929F92AF92BF92CF92DF92EF9204
:1004B000FF920F931F93CF93DF93CDB7DEB7A19732
:1004C0000FB6F894DEBF0FBECDBF8C016B01770F66
:1004D000EE08FF08F7FE50C0DC01ED91FC910190A1
:1004E000F081E02D6DE209955C0122273327A901F7
:1004F0002C193D094E095F0919A2FE01B1967F0131
:100500009AE0492E512C612C712CCA01B901A3012A
:1005100092010E94F107605DD7016E937D01211564
:1005200031054105510589F790E080E0109721F0F1
:10053000BD01C8010E943E02A80EB91E64E271E02E
:10054000C8010E943E028A0D9B1DA1960FB6F89429
:10055000DEBF0FBECDBFDF91CF911F910F91FF90F6
:10056000EF90DF90CF90BF90AF909F908F907F9053
:100570006F905F904F900895A701960119A2FE0118
:10058000B1967F018AE0882E912CA12CB12CCA0152
:10059000B901A50194010E94F107605DD7016E9336
:1005A0007D01211531054105510589F7B12CA12C9B
:1005B000109721F2BD01C8010E943E025C01BECF2E
:1005C0000F931F93CF93DF938C01D0E0C0E06115B0
:1005D000710519F00E943E02EC0164E271E0C8016D
:1005E0000E943E028C0F9D1FDF91CF911F910F91B2
:1005F000089567E271E00E94E00281E00C948700B8
:100600006EE271E00E94E00280E00C9487006115C8
:10061000710511F00C943E0290E080E008950F9374
:100620001F93CF93DF93EC010E9434028C016DE3A2
:1006300071E0892B31F066E371E0CE010E9407037F
:10064000B801CE01DF91CF911F910F910C94E00280
:10065000CF92DF92EF92FF92CF93DF93EC0164E5AC
:1006600071E00E94E002CE010E943402009719F16D
:100670000E9452077C016CE671E0CE010E940703E4
:10068000B701CE010E944D02CE010E9434020097B4
:10069000C1F00E9470076B016EE871E0CE010E940C
:1006A0000703B601CE01DF91CF91FF90EF90DF906D
:1006B000CF900C944D0261E871E0CE010E94E002FF
:1006C000E3CF64EA71E0CE01DF91CF91FF90EF902C
:1006D000DF90CF900C94E0020F931F93CF93DF93A2
:1006E000EC010885198567EB71E00E940703B801EA
:1006F000CE010E9407036BEC71E0CE01DF91CF9138
:100700001F910F910C94E002BF92CF92DF92EF9273
:10071000FF920F931F93CF93DF93CDB7DEB7A897C8
:100720000FB6F894DEBF0FBECDBF8C016BED71E04C
:100730000E94E002C8010E9434027C016FEF71E068
:10074000892B31F068EF71E0C8010E940703B701FF
:10075000C8010E94E002C8010E9434026C01892B8A
:1007600079F069E172E0C8010E940703B601C8018F
:100770000E94E002E114F10449F468E572E02AC045
:1007800064E272E0C8010E94E002F7CFB701CE0137
:1007900001960E947309B601CE0145960E94730925
:1007A000CE0101966C01F12CE12CF601B1906F01A4
:1007B000C7010E94DB07B81621F06B2DC7010E940C
:1007C000E307FFEFEF1AFF0A88E2E816F10469F782
:1007D00066E372E0C801A8960FB6F894DEBF0FBEBC
:1007E000CDBFDF91CF911F910F91FF90EF90DF90E0
:1007F000CF90BF900C94E002AF92BF92CF92DF9265
:10080000EF92FF920F931F93CF93DF93CDB7DEB795
:10081000A8970FB6F894DEBF0FBECDBF8C0167E777
:1008200072E00E94E002CE0101966C01F12CE12CF5
:100830005C01C7010E94DB07F60181936F01FFEFA6
:10084000EF1AFF0A88E2E816F10499F768EF71E001
:10085000C8010E940703B501C8010E94E00260E9D7
:1008600072E0C8010E940703BE016B5E7F4FC801A2
:100870000E94E002A8960FB6F894DEBF0FBECDBF6F
:10088000DF91CF911F910F91FF90EF90DF90CF906C
:10089000BF90AF9008951F920F920FB60F92112440
:1008A0002F933F934F935F936F937F938F939F9378
:1008B000AF93BF93EF93FF938BEC92E00E94710193
:1008C000FF91EF91BF91AF919F918F917F916F9128
:1008D0005F914F913F912F910F900FBE0F901F90FE
:1008E00018951F920F920FB60F9211242F938F938A
:1008F0009F93EF93FF93E091DB02F091DC02808104
:10090000E091E102F091E20282FD1BC090818091B2
:10091000E4028F5F8F732091E502821741F0E0912E
:10092000E402F0E0E553FD4F958F8093E402FF91E0
:10093000EF919F918F912F910F900FBE0F901F906D
:1009400018958081F4CF1F920F920FB60F92112449
:100950002F933F938F939F93AF93BF938091C30245
:100960009091C402A091C502B091C6023091C2021A
:1009700023E0230F2D3758F50196A11DB11D2093BB
:10098000C2028093C3029093C402A093C502B093A5
:10099000C6028091C7029091C802A091C902B0918D
:1009A000CA020196A11DB11D8093C7029093C8028F
:1009B000A093C902B093CA02BF91AF919F918F914A
:1009C0003F912F910F900FBE0F901F90189526E822
:1009D000230F0296A11DB11DD2CFCF93DF93EBEC75
:1009E000F2E01382128288EE93E0A0E0B0E084830C
:1009F0009583A683B7838AE091E09183808385EC19
:100A000090E09587848784EC90E09787868780ECD8
:100A100090E0918B808B81EC90E0938B828B82ECC9
:100A200090E0958B848B86EC90E0978B868B118E73
:100A3000128E138E148EC8E6D3E01B821A828CE1CC
:100A400091E099838883FD83EC83198A188A8AE070
:100A50008E8B1092C3031092C2038AE090E09B8BAE
:100A60008A8B6DEF71E08CE793E00E9473091F8A17
:100A70001092C1031092C00364E070E08AE090E03D
:100A80000E9419089F838E831F861E86DF91CF9157
:100A90000895CF93DF93CDB7DEB7CC55D1090FB60C
:100AA000F894DEBF0FBECDBF789484B5826084BD5C
:100AB00084B5816084BD85B5826085BD85B5816062
:100AC00085BD80916E00816080936E0010928100E0
:100AD000809181008260809381008091810081609B
:100AE000809381008091800081608093800080915C
:100AF000B10084608093B1008091B00081608093E8
:100B0000B00080917A00846080937A0080917A00AE
:100B1000826080937A0080917A00816080937A006D
:100B200080917A00806880937A001092C100E5E994
:100B3000F0E02491E1E8F0E08491882399F090E0DE
:100B4000880F991FFC01E859FF4FA591B491FC0152
:100B5000EE58FF4F859194918FB7F894EC91E22B6A
:100B6000EC938FBF80E00E948700E091DB02F09160
:100B7000DC0282E08083E091D702F091D8021082FB
:100B8000E091D902F091DA028FEC80831092E302B7
:100B9000E091DF02F091E00286E08083E091DD02E7
:100BA000F091DE02808180618083E091DD02F0912E
:100BB000DE02808188608083E091DD02F091DE02B8
:100BC000808180688083E091DD02F091DE02808187
:100BD0008F7D808369EF72E08BE992E00E94CF0005
:100BE00060E073E08EE992E00E94CF006FE073E076
:100BF00082EA92E00E94CF0068E273E088EA92E025
:100C00000E94CF0064E873E08AEA92E00E94CF007D
:100C10006CEF73E083EB92E00E94CF008CE693E0F0
:100C200090937703809376036CEB72E08BEC92E009
:100C30000E94E00290E0492E90E0592E2CE1622EB5
:100C400021E0722E80916C0390916D03DC01ED9197
:100C5000FC910084F185E02D099518161906C4F45D
:100C600080916C0390916D03DC01ED91FC91028405
:100C7000F385E02D0995182F80917E03181338C055
:100C80008091C0039091C103181619060CF452C04C
:100C90000E9400026B017C018AE0882E912CA12C1D
:100CA000B12C0E9400026C197D098E099F09683ED3
:100CB000734081059105A8F3F1E08F1A9108A1080E
:100CC000B10828EEC20E23E0D21EE11CF11C8114F3
:100CD0009104A104B10429F74114510409F4B2CFDD
:100CE0000E945D01882309F4ADCF0E940000AACFC5
:100CF000812F012E000C990B0E945C09892B09F4AD
:100D0000A1CF8091C0039091C103803491050CF074
:100D100099CF9C012F5F3F4F3093C1032093C003B5
:100D200088599C4FFC01178B28593C4FD901579685
:100D30001C9288CF42EC53E06CE773E08FE793E0BE
:100D40000E9497077C01892B39F1A0907803B0901D
:100D5000790300916E0310916F03D12CC12CCA143A
:100D6000DB040CF08AC04801F80160817181C70181
:100D70000E946A090C5F1F4F892B09F07AC0F401A9
:100D800080819181A281B3818093700390937103DC
:100D9000A0937203B0937303209172033091730395
:100DA0002115310509F45EC080916A0390916B03AF
:100DB0009C838B837A82698280916C0390916D030E
:100DC0009E838D8380916E0390916F0398878F83AC
:100DD0008091700390917103A0917203B09173039D
:100DE00089879A87AB87BC8780917403909175033C
:100DF000A0917603B09177038D879E87AF87B88BDC
:100E000080917803909179039A8B898B80917A03F2
:100E100090917B039C8B8B8B80917C0390917D03C5
:100E20009E8B8D8B80917E038F8B81E4EFE7F3E0C7
:100E3000DE01589601900D928A95E1F78091C003EA
:100E40009091C1036B969FAF8EAF6B978091C20359
:100E50009091C3036D969FAF8EAF6D97CE010196B3
:100E6000F901099510927F031092C1031092C003FB
:100E70000FCFFFEFCF1ADF0A72CF809174039091EA
:100E80007503A0917603B0917703809370039093DC
:100E90007103A0937203B0937303F0927103E09215
:100EA00070037ACFFC0188279927E894219120329A
:100EB000E9F3293010F02E30C8F32B3241F02D32F7
:100EC00039F4689404C00E94D307820F911D2191C8
:100ED00020532A30C0F31EF4909581959F4F0895BA
:100EE0001F93FC0199278827BC01E89411911032C7
:100EF000E9F3193010F01E30C8F31B3251F01D32E7
:100F000049F4689406C00E94BE07610F711D811DDF
:100F1000911D119110531A30B0F33EF490958095C5
:100F2000709561957F4F8F4F9F4F1F910895FA01E4
:100F3000A191B081009719F41097E1F0CD01DC0187
:100F4000CD010D90002011F4C00113C0FB012191CF
:100F5000222319F02015D9F7F3CFFB012191201599
:100F600019F41E92119606C02223C1F70D9000209D
:100F7000A1F7D001FA01A193B0830895592F482F0A
:100F8000372F262F660F771F881F991F660F771F31
:100F9000881F991F620F731F841F951F660F771F8D
:100FA000881F991F08957AE0979F902D879F802D25
:100FB000910D11240895F999FECF92BD81BDF89A43
:100FC000992780B50895262FF999FECF1FBA92BDB3
:100FD00081BD20BD0FB6F894FA9AF99A0FBE01961A
:100FE0000895A1E21A2EAA1BBB1BFD010DC0AA1F6A
:100FF000BB1FEE1FFF1FA217B307E407F50720F082
:10100000A21BB30BE40BF50B661F771F881F991FFC
:101010001A9469F760957095809590959B01AC0145
:10102000BD01CF010895EE0FFF1F0590F491E02D53
:1010300009940F931F93CF93DF93869F8001879F1F
:10104000100D969F100D1124C8010E943508EC0167
:10105000009729F0A80170E060E00E946309CE01CA
:10106000DF91CF911F910F9108950F931F93CF930D
:10107000DF938230910510F482E090E0E091C603A6
:10108000F091C70330E020E0B0E0A0E0309799F4A1
:101090002115310509F44AC0281B390B24303105CC
:1010A000D8F58A819B816115710589F1FB019383D4
:1010B0008283FE0111C04081518102811381481752
:1010C0005907E0F04817590799F4109761F0129604
:1010D0000C93129713961C933296CF01DF91CF9108
:1010E0001F910F9108950093C6031093C703F4CF87
:1010F0002115310551F04217530738F0A901DB01E2
:101100009A01BD01DF01F801C1CFEF01F9CF909342
:10111000C7038093C603CDCFFE01E20FF31F819377
:1011200091932250310939832883D7CF2091C4036A
:101130003091C503232B41F420910201309103012A
:101140003093C5032093C403209100013091010125
:101150002115310541F42DB73EB74091040150915E
:101160000501241B350BE091C403F091C503E21780
:10117000F307A0F42E1B3F0B2817390778F0AC01BA
:101180004E5F5F4F2417350748F04E0F5F1F509397
:10119000C5034093C403819391939FCFF0E0E0E0B7
:1011A0009CCFCF93DF930097E9F0FC013297138235
:1011B0001282A091C603B091C703ED0130E020E098
:1011C0001097A1F420813181820F931F2091C403D5
:1011D0003091C5032817390709F061C0F093C503A2
:1011E000E093C403DF91CF910895EA01CE17DF07A2
:1011F000E8F54A815B819E0141155105B1F7E9018E
:10120000FB83EA8349915991C40FD51FEC17FD0761
:1012100061F4808191810296840F951FE901998381
:101220008883828193819B838A83F0E0E0E0129639
:101230008D919C9113970097B9F52D913C91119741
:10124000CD010296820F931F2091C4033091C503F4
:101250002817390739F6309751F51092C7031092C5
:10126000C603B093C503A093C403BCCFD383C2838A
:1012700040815181840F951FC817D90761F44E5FD3
:101280005F4F88819981480F591F518340838A811C
:101290009B81938382832115310509F0B0CFF093B0
:1012A000C703E093C6039ECFFD01DC01C0CF1382CC
:1012B0001282D7CF803209F091110C947A098052B2
:1012C0008F55D8F70895DC0101C06D93415050400F
:1012D000E0F70895FB01DC018D9101908019011068
:1012E000D9F3990B0895FB01DC0101900D920020C8
:0E12F000E1F70895992788270895F894FFCF15
:1012FE000000C8038000000000009301F3002001ED
:10130E00E00151012F014301000000002502F3000E
:10131E00310230020D0A004C4544206F6E004C45E0
:10132E0044206F66660048656C6C6F200048656CE3
:10133E006C6F2C2077686F6576657220796F7520DB
:10134E0061726500576527726520696E2070726F35
:10135E0063657373436F6D6D616E6400466972737E
:10136E007420617267756D656E74207761733A20B3
:10137E00004E6F20617267756D656E7473005365F4
:10138E00636F6E6420617267756D656E7420776130
:10139E00733A20004E6F207365636F6E6420617226
:1013AE0067756D656E7400446964206E6F7420728B
:1013BE0065636F676E697A65202200222061732053
:1013CE006120636F6D6D616E642E00736574746958
:1013DE006E6720776966692063726564656E7469ED
:1013EE00616C73202E2E2E00535349443A20004E2A
:1013FE006F2053534944206F7220706173736F775F
:10140E00726420676976656E0050617373776F72D0
:10141E00643A20004E6F2070617373776F72642090
:10142E00676976656E0057726F74652077696669B5
:10143E002063726564656E7469616C7320746F20CD
:10144E00454550524F4D2E00696E73756666696341
:10145E0069656E7420706172616D6574657273205A
:10146E00676976656E2E0073746F72656420776996
:10147E0066692063726564656E7469616C733A00A7
:10148E0070617373776F72643A20004F4E004F464F
:10149E00460048454C4C4F0050005345545F574949
:1014AE004649004745545F574946490052656164B5
:0214BE007900B3
:00000001FF
